:400000000040002011000000350D0000350D000080B500AF00F092FE80B500AF284B12221A6002F031F8274B181C01F09DFC012002F03AF80C2001F027FE234B234A1A603B
:40004000234B8022D2051A60224B224A126802210A431A60204B214A1A60214B204A126808218A431A60FA23DB00181C01F058FE1C4B181C01F022FF1B4B00221A601B4B4A
:400080001B4A1A601B4B802252001A60174B1A4A1A601A4BA62212061A60194B00221A60184B40221A60184B41221A60084B8022D2051A60024B00221A60BD4680BDC0469A
:4000C00030001040001BB70004010B40060000800C020B4078002E407C002E406A2D00006CF02E40DC050000000301400000014040FF00800403014041FF008008010B40CD
:4001000000010B401C0101401801014080B582B000AF72B63E4B00221A60FB1D00221A7023E0FB1D1A78131C5B009B185B00394A9B183B603B681A78597809020A4399780F
:4001400009040A43DB781B061343191C3B681A795B791B0213439BB2081C191C00F072FEFB1D1A78FB1D01321A70FB1D1B78012BD7D9294A294B101C191C00F073FE284B81
:40018000EE2212061A60274B08221A60264B992212041A60254B992212041A60244B992212041A60234A234B1B78DBB202210B43DBB21370204A204B1B78DBB23C218B43BA
:4001C000DBB214210B43DBB213701A4A194B1B78DBB216210B43DBB21370184BD82212041A60174BC0221A60164BB022D2031A60154B43221A60154B154A1A60154B022239
:400200001A60FFF709FF00F06DFEBD4602B080BD6CF02E40E83A0100F43A01000C3B0100000002400003024000500F4020500F4030500F4000700F4001700F400800044016
:40024000000204400802044000030440080304400600D8001803044010B5064C2378002B07D1054B002B02D0044800E000BF0123237010BDA80F002000000000643A010030
:4002800008B5084B002B03D00748084900E000BF07480368002B00D108BD064B002BFBD09847F9E700000000643A0100AC0F0020A80B00200000000090B589B000AF78601E
:4002C00039607B68272B39D018D8222B00D155E00CD8032B00D153E002D8012B24D068E0042B00D14EE0212B4ED062E0242B4DD04ED3252B4ED0262B27D05AE0422B4BD0AD
:4003000007D8292B4AD00FD32A2B49D0412B49D04FE04C2B2AD002D8432B45D049E0572B44D0FA2B44D044E0002000F0F7FE002000F01AFE204B00221A703AE0012000F013
:4003400013FE012001F0EAFA33E01C4B1B78042B0BD1012000F008FE002001F0DFFA012001F0F8FD01F0D8FD23E022E00C23FB183A6813CA13C312681A601AE0C04618E008
:40038000C04616E0C04614E0C04612E0C04610E0C0460EE0C0460CE0C0460AE0C04608E0C04606E0C04604E0C04602E0C04600E0C046BD4609B090BDC50F00207621002037
:4003C00080B500AF02F0AEFD164B1B78012B08D0022B1FD0002B00D021E0012001F06CFA1CE0114B1B780133DAB20F4B1A700E4B1B78642B0DD101F083FA031C1A1C012325
:400400005340DBB2181C01F057FA074B00221A7004E003E0002001F04FFAC046C046BD4680BDC046C50F0020C40F002080B500AF00F0A6FA031E01D000F00AFCBD4680BD32
:4004400090B583B000AF00F0C1F962B63C1D2A4B181C00F0CDFD031C23803B1D1B88002B02D0002001F020FD244B181C00F058FFFB1D00221A70FFF7D9FFFC1D00F07AF8F8
:40048000031C237002F096F8031E02D1FB1D01221A70FB1D1B78002B18D0FB1D1B784F2B14D8174B9B79DBB2002B07D100F0D0FBFB1D1B78181C00F081FB1AE000F0C8FBC9
:4004C000FB1D1B78181C00F0E5FB12E0FB1D1B78502B05D100F0BCFB094B01229A7108E0FB1D1B78512B04D100F0B2FB044B00229A71FFF765FFBEE7B90200000505000075
:40050000E020002080B582B000AF786039607A68D8235B009A4208D1144B002001211A1C00F06EFF124B01221A707B6893225200934211D093225200934204D82622FF3218
:4005400093420BD00FE02822FF32934208D094225200934206D006E0C04604E0C04602E0C04600E0C046BD4602B080BDC50F0020C60F002080B500AF064B1B78002B05D0BA
:40058000044B00221A70044B1B78FFE7181CBD4680BDC046C60F0020C50F002080B584B000AF021CFB1D1A700F23FB1800221A705E4B9B685A1C5D4B9A605C4B9B78DBB241
:4005C000002B03D00F23FB181B78ABE0584B1B78012B2ED0022B5FD0002B00D0A2E0534B1B78DBB2FA1D12789A421AD24F4B9B889BB201339AB24D4B9A804C4B9B889BB2F7
:40060000132B00D88EE04A4B1B780133DAB2484B1A70484B00221A700F23FB1801221A7080E0424B00229A800F23FB1800221A7078E03E4B1B78DBB2FA1D12789A4207D28F
:400640003A4B9B889BB201339AB2384B9A801EE0374B1B780133DAB2354B1A70354B1B785A1CD1B2334A11701A1C304B9B889BB2D9B2314B99542D4B00229A802D4B1B78AD
:40068000DBB25BB2002B02DA2A4B00221A700F23FB1801221A7045E00F23FB1801221A70224B1B78DBB2FA1D12789A4219D31F4B9B889BB201339AB21C4B9A801B4B9B8815
:4006C0009BB2FA2B2DD91A4B00221A70174B01229A70164B00229A800F23FB1800221A701FE0134B1B78013BDAB2114B1A70114B1B785A1CD1B20F4A11701A1C0B4B9B8845
:400700009BB2D9B20C4B9954084B00229A80094B1B78DBB25BB2002B03DA064B00221A70FFE7C046181CBD4604B080BDE0200020C70F00206C210020EC20002080B582B01E
:4007400000AF094B1B687B60084B1B689BB21BB2DB109BB2DBB2181CFFF720FF024B7A681A60BD4602B080BD10023A4080013A4080B582B000AF124B3B603B681B78552B34
:4007800000D119E0FB1D00221A7011E0FB1D1B780C4AD11AFB1D1B78DA010B4BD318081C191C01F0F1F8FB1D1A78FB1D01321A70FB1D1B78002BE9D0BD4602B080BDC046CE
:4007C00080FF0100FF030000683A010080B582B000AF002001F088FC01F0AAFC234B181C01F0F2FD01F03EFE214B181C00210C2202F060FB3B1D00221A80FB1D00221A70CF
:4008000016E001F0A5FD022001F0ACFD194B1B689BB21BB2DB109BB21BB299B23B1D3A1D12888A181A80FB1D1A78FB1D01321A70FB1D1B78072BE4D93B1D1B88DB089BB259
:40084000DAB20B4B1A700A4B1B78DBB25B08DAB2074B1A7001F0FCFDFFF78AFF01F046FE034B01229A70BD4602B080BD3D070000E020002080013A4080B582B000AF3E4BC3
:400880001B78432B01D0002372E0FB1D00221A70FB1D1B78FA1D591C11701A1C374B9B5C862B01D8002363E0FB1D1B78FA1D591C11701A1C314B9B5C3A2B01D8002357E0DD
:4008C00000233B6039E0FB1D1B782C4AD35C192B03D87B1D00221A7002E07B1D01221A70FB1D1B7801221340DBB2002B1CD03B685B083B607B1D1B78012B09D1BB1D1B7845
:40090000002B05D13B688022120613433B600AE07B1D1B78002B04D1BB1D1B78002B00D101E0002324E003E0BB1D7A1D12781A70FB1D1A78FB1D01321A70FB1D1A780E4BFC
:400940001B78013B9A42BEDBFB1D1B780B4AD35C3B2B01D900230BE03B681A0E3B68DB431B0CFF210B409A4201D0002300E03B68181CBD4602B080BD6C210020EC20002046
:4009800080B586B000AF304B9B78DBB2002B01D1002354E0FFF770FF031C3B612A4B00229A703B69002B01D1002348E00F23FB1800221A701723FB1801221A7030E01723CC
:4009C000FB181A78131C5B069B1ADB018022920294466344BB60BB681B78552B00D018E0BB6802331B781A1CBB6803331B781B02D218BB6804331B781B04D218BB680533FC
:400A00001B781B06D3187B603A697B689A4200D10BE01723FB181A781723FB1801321A701723FB181B787E2BC9D91723FB181B787F2B01D1002302E01723FB181B78181C95
:400A4000BD4606B080BDC046E020002090B587B000AF78607B687B6101F000FE534B00229A60534BFB60C046504B9C68FB68181C322102F05FF8031C9C42F5D301F000FE6A
:400A8000FB684C4A94466344FB60C046474B9C68FB68181C322102F04DF8031C9C42F5D300233B6141E001F0D9FDFB688C22920094466344FB60C0463C4B9C68FB68181C91
:400AC000322102F037F8031C9C42F5D301F0D8FD7B690122134011D0FB68D222D20094466344FB60C046314B9C68FB68181C322102F020F8031C9C42F5D310E0FB688C2277
:400B0000920094466344FB60C046284B9C68FB68181C322102F00EF8031C9C42F5D37B695B087B613B6901333B613B691F2BBAD901F094FDFB688C22920094466344FB600A
:400B4000C0461A4B9C68FB68181C322101F0F2FF031C9C42F5D301F093FD174BFB60C046124B9C68FB68181C322101F0E3FF031C9C42F5D30023FB6001F070FD0C4B181CE7
:400B800000F04EF801F07CFDD223DB00181C00F047F801F063FDD223DB00181C00F040F801F06EFDBD4607B090BDC046E02000202823000094110000E0A5010080B584B07D
:400BC00000AF021CFB1D1A70FB1D1A78131C5B069B1ADB018022920294466344FB60FB681B78552B00D017E0FB6802331B781A1CFB6803331B781B02D218FB6804331B78AB
:400C00001B04D218FB6805331B781B06D318BB60BB68181CFFF71AFFBD4604B080BDC04690B583B000AF7860084B00229A60C046064B9C687B68181C322101F07BFF031C39
:400C40009C42F5D3BD4603B090BDC046E020002080B500AF002000F061FE0D4B181CFFF7DFFF012000F05AFE094B181CFFF7D8FF002000F053FE064B181CFFF7D1FF012067
:400C800000F04CFE024B181CFFF7CAFFBD4680BDA086010080B5A4B000AF021CFB1D1A700C23FB181A1C8023101C00211A1C02F001F91F4B9B78DBB2002B02D1FFF7C8FF0C
:400CC00030E0FFF7D9FD031C8C22BA181360184B00229A708C23FB181B68002B00D121E00C23FB1855221A700C23FB1804225A700C23FB189A1C8C23FB18101C191C04227F
:400D000002F0CFF8FB1D1B788022D200D21A0C23FB18101C191C00F037FEFFF799FFFFF797FF00E0C5E7181CBD4624B080BDC046E020002080B500AFFEE7C04680B586B0D9
:400D400000AF224B7B61224B3B61204B7B6135E03B691B68FB603B695B68BB603B699B683B6000237B600CE0FB681A68BB681A60BB680433BB60FB680433FB607B680433E0
:400D80007B607A683B689A42EED13B69DB683B6000237B6008E0BB6800221A60BB680433BB607B6804337B607A683B689A42F2D13B6910333B617B69013B7B617B69002BF5
:400DC000C6D102F039F8FFF73BFBFEE701000000943F010080B582B000AF154B144A126801218A431A6000237B600FE07B68032B04D8104B7A689200D35800E00E4B0F4A36
:400E0000796889008B507B6801337B607B682F2BECD9FFF77BF90A4B00221A60044B044A126801210A431A60BD4602B080BDC0460000104000000000350D00000000002074
:400E4000C000002080B582B000AF786039607A683B68101C00211A1C02F02CF8BD4602B080BDC04680B586B000AF7860396000233B6100237B612FE07B699B007A68D31851
:400E80001B68BB600F23FB18BA681A70BB68FF229343BB6018E03B695B003A68D3181B781A1CBB68D318191C3B695B003A68D3185B780B703B6901333B610F23FB181A78B9
:400EC0000F23FB18013A1A700F23FB181B78002BE1D17B6901337B617B69052BCCD9BD4606B080BD80B500AF0A4B03221A600A4B03221A60094B802212061A60084B0222C5
:400F00001A60084B00221A60012000F00DF8BD4680BDC046300030403000314000003A4000033A40000E3F4080B584B000AF021CFB1D1A700B4B1B68FB60FB1D1B78002B45
:400F400005D0FB68802212061343FB6003E0FB685B005B08FB60034BFA681A60BD4604B080BDC04680033A4080B584B000AF021CFB1D1A700E4B1B68DAB20F23FB18402168
:400F80008A431A70FB1D1B789B01DBB240221340D9B20F23FB180F22BA1812780A431A70034B0F22BA1812781A60BD4604B080BD0003044080B500AF064B00221A70064B5B
:400FC00000221A70054B00221A7000F009F8BD4680BDC0467F210020782100207E21002080B500AF00F064FC00F096F9BD4680BDB0B594B004AF78603E23FB1800221A8083
:401000002823FA183E4B111C1A1C1423081C111C1A1C01F046FF3B4B1B78002B04D1FFF7C9FF384B01221A707B68002B5CD0364B7A681A603E23FB181B88002B29D11023E6
:40104000FB181C22BA185A601023FB182022BA181A601023FB1800221A812023FB181B221A802023FB181B225A802023FB1804221A711C23FB1800221A703E23FC18102375
:40108000FA180E23FB18101C191C02F021F8031C23803E23FB181B88002B29D13E23FC181A481B49AE231A012823FD180523009300230193002302932B1C01F065FF031C04
:4010C00023803E23FB181B88002B11D1114B01221A703E23FC18104B181C14210E220DF0FFFD031C238003E03E23FB1801221A803E23FB181B88181CBD4610B0B0BDC04667
:40110000AC3B0100C80F002070210020B1150000C800002076210020E83B010090B585B000AF021CFB1D1A70FB1D1B78022B04D90E23FB1801221A804BE0294B1B78042B96
:4011400042D1284B1B78DBB21A1C042313403BD1FB1D1B78002B0BD1234B1E221A82224B5B6820221A80204B5B6830225A8010E0FB1D1B78012B0CD11B4B96221A821A4BE8
:401180005B68C822D2001A80174B5B688022D2015A80164BFA1D12781A700E23FC18124B181C0BF0D9FE031C23800E23FB181B88002B08D10B4B1B78DBB204221343DAB243
:4011C000084B1A7005E004E00E23FB180422FF321A800E23FB181B88181CBD4605B090BD762100207F210020FC0B00207E21002080B584B000AF78600A1CFB1C1A700023BD
:40120000BB60BB68002B20D07B689A79BB681A700F23FB1800221A7012E00F23FB181B780133BA68D3180F22BA18127879688A5C1A700F23FB181A780F23FB1801321A70FF
:401240000F23FB181B78052BE7D9BD4604B080BD80B582B000AF78607B681B789AB27B6801331B789BB21B029BB213439BB2181CBD4602B080BDC04690B585B000AF7860D1
:401280000F23FB1800221A707B689B890D22934237D17B681A1D7B680F217C18101C00211A1C40230DF06AFD031C23700F23FB181B78002B1DD17B685B68181CFFF7C8FFE5
:4012C000031C1A1C022313409BB2002B08D0104B1B68822251007A68081C111C984708E00B4B1B680622FF32111C7A68081C111C9847084B1B78DBB201229343DAB2054B4B
:401300001A700F23FB181B78181CBD4605B090BD702100207F21002080B500AFBD4680BD80B582B000AF7860024B7A681A60BD4602B080BDCC0F002080B584B000AF0F23AF
:40134000FB1800221A7010223B1C1A813B1C0F22BA181A603B1C01229A803B1C181C0021002200230DF00AFDBD4604B080BDC04680B584B000AF78601F4B1B68002B37D024
:4013800010227B689B899A4232D17B681B89012B2ED17B685B681B78022B29D87B681A1D7B68101C00211A1C40230DF0E7FC031E1ED10823FB187A6812881A800823FB1897
:4013C00000229A707B681A1D0823FB185A600A4B1B68D82251000822BA18081C111C9847064B1B78DBB201229343DAB2034B1A70BD4604B080BDC046CC0F00207F210020DD
:4014000080B586B000AF3A60FB1D021C1A70BB1D0A1C1A701623FB1801221A803B68002B22D0FB1D1B78002B1ED1BB1D1B78012B1AD110220823FB181A81BB1D1B789AB2DE
:401440000823FB189A800823FB183A681A600823FB18181C002100220DF05AFC031E03D11623FB1800221A801623FB181B88181CBD4606B080BDC04690B585B000AF786095
:401480000F23FC187B68181CFFF7F6FE031C2370144B1B78DBB21A1C012313401FD10F23FB181B78002B16D00823FB1812229A707B689A890823FB181A800823FB180F2265
:4014C000BA181278DA707B680822BA181868111C0CF064FE03E07B6818680CF0E1FEBD4605B090BD7F21002080B582B000AF7860BD4602B080BDC04680B500AF044B00223B
:401500005A70034B00221A70FFF716FFBD4680BD7C21002080B582B000AF7860BD4602B080BDC04680B500AFBD4680BD80B584B000AF78600E23FB1800221A707B689B79FE
:40154000002B1CD10F23FB1800221A7012E00F23FB181B787A68D35C002B04D00E23FB1801221A700BE00F23FB181A780F23FB1801321A700F23FB181B78052BE7D90E23DA
:40158000FB181B78181CBD4604B080BD80B582B000AF021CBB1D1A80BD4602B080BDC04680B582B000AF7860BD4602B080BDC04680B586B000AF021C3960FB1D1A70B14B6A
:4015C0001B78DBB201221343DAB2AE4B1A70FB1D1B78712B00D93AE19A00AB4BD3181B689F460C23FB1807221A700C23FB1800225A700C23FB18181C03F0EAFB0C23FB1872
:4016000007221A700C23FB1801225A700C23FB18181C03F0DDFB9D4B1B68181CFFF786FF031E11D0994B1B68181C01F07FFC974B1B68181C0021FFF7DBFD944B1B68181C46
:401640000121FFF7D5FD0DE0914B181C01F06EFC8F4B181C0021FFF7CBFD8D4B181C0121FFF7C6FD03200BF027FB0823FB183F221A700823FB1800225A700823FB18181C4F
:401680000BF038FB834B04221A70E1E03B68181CFFF740FFDCE03B681A787F4B1A70D7E03B683B613B691B78002B18D13B695B78002B0BD1794B0022DA80784B00229A806E
:4016C000764B774A1A603B69744A5A606D4B1B78DBB201229343DAB26A4B1A70B8E0B7E0684B1B78DBB21A1C2023134016D16D4B1B78102B02D16B4B0522DA706A4B1A78BA
:40170000684B101C191C0BF0E7FB5E4B1B78DBB201221343DAB25B4B1A7099E098E03B68181CFFF73DFF93E03B68181CFFF738FF584B02221A708BE0564B04221A7087E0D5
:40174000544B1B78022B34D04E4B1B78DBB21A1C012313402DD04B4B1B78DBB21A1C042313400BD04B4B03221A70464B1B78DBB204229343DAB2434B1A701AE0414B1B78B3
:40178000DBB21A1C082313400BD0424B04221A703C4B1B78DBB208229343DAB2394B1A7007E03C4B1B78032B03D13A4B04221A704EE04DE03B681B88181CFFF7E7FE47E080
:4017C000394A3B68111C1A1C0223081C111C1A1C01F067FB304B00221A70FFF7A3FE37E0FFF78AFE34E03B685B88162B05D81623FB183A6852881A8003E01623FB1817228C
:401800001A803B681622BA1811881A8800231204120C1B0C1B041343181C0CF0C9FC17E03B68181CFFF728FE12E0164B1B78DBB21A1C0123134004D03B68181CFFF798FDFE
:4018400006E005E03B68181CFFF74EFE00E0C0460C4B1B78DBB21A1C112313400FD0094B1B78DBB201229343DAB2064B1A700F4B1B68FA1D11783A68081C111C9847BD4665
:4018800006B080BD7F210020783D0100180C0020100C00207621002078210020D00F0020A80B0020A40C00207C2100207021002080B500AFBD4680BD80B584B000AF021C65
:4018C000FB1D1A700D4B1B68DAB20F23FB187F210A401A70FB1D1B78DB01D9B20F23FB180F22BA1812780A431A70044B0F22BA1812781A60BD4604B080BDC04600030440D4
:4019000080B500AF044B1B6880221340DB09DBB2181CBD4680BDC0460403044080B584B000AF021CFB1D1A700E4B1B68DAB20F23FB1840218A431A70FB1D1B789B01DBB2B5
:4019400040221340D9B20F23FB180F22BA1812780A431A70034B0F22BA1812781A60BD4604B080BD000204400230800803D00138FDD1C046C046C0467047EFF3108072B6F8
:40198000704780F31088704790B5A9B000AF7860396000239822BA18136000239422BA1813607B68594A934200D9A4E03B68002B00D1A0E00C23FB1808331A1C3B68101C57
:4019C000191C802201F06DFA7B68514A934201D9504A00E0504A0C23FB181A600C23FB187F225A604D4B0C22BA181A604C4B4D4A1A60C046494B1B681B0F1A07F0231B06C8
:401A00009A4204D1454B1B68FF2213400BE0434B1B681B0F1A07A0231B069A4202D03F4B1B6800E000239822BA1813609823FB181B68002B5ED19F23FC18FFF79EFF031C53
:401A4000237000F075F8031C9422BA1813609423FB181B68002B05D100F0A6F8031C9822BA1813609823FB181B68002B30D10C23FB182D4A1A600C23FB181A687B681B04EC
:401A80001A430C23FB181A60244B0C22BA181A60234B264A1A60C046204B1B681B0F1A07F0231B069A4204D11C4B1B68FF2213400BE01A4B1B681B0F1A07A0231B069A426C
:401AC00002D0164B1B6800E000239822BA1813609423FB181B68002B05D100F099F8031C9422BA1813609F23FB181B78181CFFF748FF04E003E004239822BA1813609823C4
:401B0000FB181B68181CBD4629B090BDFF030000FF010000B6D70001B6D70000080010400400104004000080B6D800000500008080B584B000AF0023FB603B1D154A1A608B
:401B4000154A3B1D5A60154B3A1D1A60144B154A1A60C046114B1B681B0F1A07F0231B069A4204D10D4B1B68FF2213400BE00B4B1B681B0F1A07A0231B069A4202D0074B34
:401B80001B6800E00023FB60FB68181CBD4604B080BDC046B6E90000DC0F002008001040040010401600008080B582B000AF00237B60134B134A1A60134B144A1A60C04642
:401BC0000F4B1B681B0F1A07F0231B069A4204D10B4B1B68FF2213400BE0094B1B681B0F1A07A0231B069A4202D0054B1B6800E000237B607B68181CBD4602B080BDC0462C
:401C000008001040B6E80000040010401500008080B584B000AF0023FB603B1D154A1A60154A3B1D5A60154B3A1D1A60144B154A1A60C046114B1B681B0F1A07F0231B06C0
:401C40009A4204D10D4B1B68FF2213400BE00B4B1B681B0F1A07A0231B069A4202D0074B1B6800E00023FB60FB68181CBD4604B080BDC046B6EA0000DC0F002008001040FC
:401C8000040010401700008090B58BB000AF78602723FC18FFF771FE031C2370184B1A680C23FB181A60174B1A680C23FB185A607B68033B144AD35C1A1C0C23FB189A601C
:401CC000124B1A680C23FB18DA601C23FB18104A1A600C23FA181C23FB185A600D4B1C22BA181A600C4B0D4A1A600A4B1B682723FB181B78181CFFF744FEBD460BB090BDCD
:401D000008010B4000010B40403F010030001040B6EA000008001040040010401700008080B584B000AF78600023FB60154B154A126801210A431A60134B144A1A60144BFB
:401D4000134A1268802109020A431A607B68002B12D01023FB600CE0012000F0AFF800F019F8031E02D00023FB6005E07B68013B7B607B68002BEFD1FB68181CBD4604B08A
:401D800080BDC04660F02E4078002E400220000010002E4080B582B000AF054B1B68012213407B607B68181CBD4602B080BDC0460C002E4080B584B000AF021C3960FB1DF2
:401DC0001A7080239B05FB60FB1D1B781F2B02D9002000F069F8FB1D1B7810339B00FA68D3181B68BB60FB1D1B7810339B00FA68D3183A681A60BB68181CBD4604B080BDC9
:401E000090B587B000AF021CFB1D1A70BB1D0A1C1A70BB1D1B78032B02D9002000F044F8FB1D1B781F2B02D9002000F03DF8FB1D1B7803221340DB0006337B611323FC18FD
:401E4000FFF79BFD031C2370FB1D1B789B08DBB29B00144A944663441B68FB607B6903229A40131CDA43FB681340FB60BB1D1A787B699A40131CFA681343FB60FB1D1B789A
:401E80009B08DBB29B00074A94466344FA681A601323FB181B78181CFFF773FDBD4607B090BDC04600E400E080B582B000AF021CFB1D1A7001BEBD4602B080BD80B582B074
:401EC00000AF021CBB1D1A80BB1D1B88044A12785343181CFFF748FDBD4602B080BDC046B40C002090B583B000AFFC1DFFF745FD031C2370074B074A126804218A431A60C0
:401F000030BFFB1D1B78181CFFF73BFDBD4603B090BDC04610ED00E080B500AFFFF72DFD0B4B0B4A1168802252020A40F2210A431A6000F035F8064B054A12688021090696
:401F40000A431A60C046C04630BFBD4680BDC0462C000B4090B585B000AF78600F23FC18FFF70BFD031C23700B4A7B68002B05D0094B1B68802149020B4303E0064B1B68EB
:401F800006490B4013600F23FB181B78181CFFF7F8FCBD4605B090BD2C000B40FFFFFEFF90B583B000AFFC1DFFF7E7FC031C23700E4B1A6880239B0213400FD10B4B0B4AE3
:401FC00012680B490A400B490A431A60074B1B68064B1B68054B054A12681A60FB1D1B78181CFFF7CEFCBD4603B090BD2C000B40FF000100003A028080B500AF0E4B0E4A08
:40200000126801218A431A600B4B0B4A126802218A431A60094B094A126830218A4310210A431A60054B054A126807218A4301210A431A60BD4680BD00F02E4000FF2E40F5
:4020400080B500AF0E4B0E4A126802218A431A600C4B0C4A126807218A4302210A431A60084B084A126830218A4320210A431A60034B034A126801210A431A60BD4680BD5E
:4020800000F02E4000FF2E4080B500AFFFF7B4FF044B044A1268802109060A431A60BD4680BDC04600F02E4080B584B000AF78600C4B1B6801221340FB607B68002B02D01B
:4020C000012B03D005E0FFF797FF06E0FFF7B8FF03E00020FFF7E8FEC046FB68181CBD4604B080BD00F02E4080B584B000AF021CFB1D1A700D4B1B68DAB20F23FB18012169
:402100008A431A70FB1D1B7801221340D9B20F23FB180F22BA1812780A431A70034B0F22BA1812781A60BD4604B080BD0003044080B500AF064B1B78002B04D100F00AF8A9
:40214000034B01221A7000F0E7F8BD4680BDC046EC0F002080B584B000AF0F200321FFF74FFE534B0F20191CFFF724FE514B01221A60514B1B68002B01DA504900E05049FC
:40218000504B504A12680A431A604F4B4F4A1A604F4B504A1A60504B00221A604F4B504A1A60504B4E4A1A604F4B4F4A1268802149020A431A604D4B00221A604C4B00226F
:4021C0001A604C4B01221A604B4B1B687B607B684A4A13407B607B688022920513437B607B68012293437B60434B7A681A600023FB6057E00022DC239B0113407B60FB68A7
:402200009B003F4A944663447A681A6000220123134009D0354B354A1268F96801208840011C89B20A431A6000220223134009D02F4B2F4A1268F96801208840011C89B2C7
:402240000A431A60002280239B00134003D080235B00BB6002E080235B01BB60002280235B00134005D1274BFA6852000021D15204E0244BFA6852000021D152BB68224A6F
:402280005343224A94466344181C214900F0E2FC031C9BB219B21F4BFA689200D150FB680133FB60FB68002BA4D0BD4604B080BDAD23000020003A4080033A407002105058
:4022C0007002005000003A4004003A409C000A8018003A400000FF071C003A4010003A400400040014003A4000033A4028023A4038023A4018023A4030003A40FFFFFFDFC1
:4023000080003A408021002010270000E40C0000C81900008421002080B500AF0A4B1B68002B0EDBC046094B1B68002BFBDB064B054A1268802109060A431A600A20FFF7B6
:40234000BDFDBD4680BDC04600003A4008023A4080B500AF024B01221A60BD4680BDC04624003A4080B584B000AF78600023FB607B680322134011D00B4B1B6801221340B4
:40238000FB60FB68002B03D17B6802221340F3D1FB68002B02D0044B01221A60FB68181CBD4604B080BDC04610023A4080B582B000AF044B1B687B60024B7A681A60BD466A
:4023C00002B080BD10023A4080B582B000AF786000F048F87B68181C00F008F8032000F011F800F035F8BD4602B080BD80B582B000AF7860024B7A68DA67BD4602B080BDC2
:402400000000002090B585B000AF021CFB1D1A701E23FB600B23FC18FFF7AFFA031C23700A4B0A4A126892009108FA1D1078FA689040021C0A431A600B23FB181B78181C58
:40244000FFF79FFABD4605B090BDC0460CE400E080B500AF024B802212021A60BD4680BD00E100E080B500AF024B802212021A60BD4680BD80E100E090B583B000AF114B2B
:40248000181C00F05FF80F4B181C00F075F8FC1DFFF773FA031C23700B4A0B4B1B78DBB210210B43DBB21370FB1D1B78181CFFF768FA00F071F8012000F02AF8BD4603B0B5
:4024C00090BDC0465702000093000F4080B500AF0549054B1B78DBB2802252421343DBB20B70BD4680BDC04673000F4080B500AF064B1B78002B04D1FFF7BEFF034B012224
:402500001A70FFF7E3FFBD4680BDC046ED0F002080B582B000AF021CFB1D1A70034AFB1D1B781370BD4602B080BDC04683000F4080B500AF024B1B78DBB2181CBD4680BDF7
:4025400063000F4080B582B000AF021CBB1D1A80034ABB1D1B881380BD4602B080BDC04644100F4080B500AF024B1B889BB2181CBD4680BD84100F4080B582B000AF021C61
:40258000BB1D1A80034ABB1D1B881380BD4602B080BDC04604100F4080B500AF01E0FFF7E1FFFFF7C5FF031C1A1C08231340F6D1BD4680BD80B500AF044B1B688022134019
:4025C000DB09DBB2181CBD4680BDC0460402044080B500AF104B8022D2041A600E4B0E4A12681A60002000F063F80B4B0A4A12681A600A4B0C221A60002000F09FF8084BD0
:4026000031221A603C23FF33181C00F05FF89D2000F06AF8BD4680BD00012040240120402801204090B583B000AFFC1DFFF7A5F9031C2370084B084A126801210A431A6075
:40264000FB1D1B78181CFFF79CF90120182100F059F8BD4603B090BD0000204080B500AF064B1B78002B04D1FFF7B2FF034B01221A70FFF7D7FFBD4680BDC046EE0F002059
:4026800090B583B000AFFC1DFFF777F9031C2370064B064A126801218A431A60FB1D1B78181CFFF76EF9BD4603B090BD0000204080B582B000AF7860034B7A681204120C4D
:4026C0001A60BD4602B080BD0801204080B582B000AF7860034B7A681204120C1A60BD4602B080BD1401204080B582B000AF7860034B7A681204120C1A60BD4602B080BD14
:402700000C01204090B585B000AF786039600F23FC18FFF732F9031C2370074B3A68796891400A1C1A600F23FB181B78181CFFF728F9BD4605B090BD0800204080B582B03C
:4027400000AF7860024B7A681A60BD4602B080BD3801204080B582B000AF78600A1CBB1C1A80BB1C1A887B681A60BD4602B080BD80B582B000AF78600A1CBB1C1A80BB1CF5
:402780001A887B681A60BD4602B080BD80B584B000AF494B1B78DBB21B02484A1278D2B21343FB60464B1B78DBB21B02454A1278D2B21343BB60BB68434A934207D1FB6852
:4027C000072B04D1414BBB600423FB6009E0BA68D4231B019A4204D1FB68042B01D13B4BBB603B4BBA681A603A4BFA681A603A4B1B78DBB21B02394A1278D2B21343FB604E
:40280000FA6880239B019A4202D0FB68002B01D1334BFB60334BFA681A60334B1B78DBB21B02324A1278D2B21343FB60FB68304A934206D0FB682F4A934202D0FB68052B22
:4028400001D12D4BFB602D4BFA681A602C4B1B681B097B602B4B1B68AA2B29D17B68012B26D9214B1B78DBB20E2B21D1264B1B78DBB29BB21B0299B2244B1B78DBB29AB2B8
:40288000BB1C0A431A80224BBA1C12881A60214B1B78DBB29BB21B0299B21F4B1B78DBB29AB23B1C0A431A801C4B3A1C12881A60BD4604B080BDC046D9F0FF0FD8F0FF0F36
:4028C000DFF0FF0FDEF0FF0F580B0000580D00006C002E4074002E40DBF0FF0FDAF0FF0F0220000078002E40DDF0FF0FDCF0FF0F0F0F000005050000050F000080002E4003
:40290000EC0F00F0E00F00F06DF2FF0F6CF2FF0F84002E406FF2FF0F6EF2FF0F94002E4080B582B000AF021CBB1D1A80BB1D1B88181CFFF7C3FABD4602B080BD80B500AF45
:4029400000F0DEF8BD4680BD80B500AF00F0E2F8BD4680BD80B500AF00F0DCF8044B181C00F09CF8002000F0A5F8BD4680BDC046292B000080B500AF024B181C00F07CF8A4
:40298000BD4680BD292B000080B500AF0223FF33181CBD4680BDC04680B582B000AF78602B23181CBD4602B080BDC04680B582B000AF78602B23181CBD4602B080BDC046FE
:4029C00080B582B000AF78602B23181CBD4602B080BDC04680B582B000AF78602B23181CBD4602B080BDC04680B582B000AF78602B23181CBD4602B080BDC04680B582B038
:402A000000AF78602B23181CBD4602B080BDC04680B582B000AF78602B23181CBD4602B080BDC04680B582B000AF78602B23181CBD4602B080BDC04680B500AF2B23181C5F
:402A4000BD4680BD80B582B000AF021CFB1D1A702B23181CBD4602B080BDC04680B582B000AF786039602B23181CBD4602B080BD80B500AFBD4680BD80B582B000AF7860B9
:402A800000F048F87B68181C00F008F8002000F011F800F035F8BD4602B080BD80B582B000AF7860024B7A681A67BD4602B080BD0000002090B585B000AF021CFB1D1A701E
:402AC0000623FB600B23FC18FEF757FF031C23700A4B0A4A1268C0218A43111CFA1D1078FA689040021C0A431A600B23FB181B78181CFEF746FFBD4605B090BD0CE400E048
:402B000080B500AF024B802252011A60BD4680BD00E100E080B500AF024B802252011A60BD4680BD80E100E080B500AF10F086FFBD4680BD002243088B4274D303098B42D0
:402B40005FD3030A8B4244D3030B8B4228D3030C8B420DD3FF22090212BA030C8B4202D31212090265D0030B8B4219D300E0090AC30B8B4201D3CB03C01A5241830B8B42D4
:402B800001D38B03C01A5241430B8B4201D34B03C01A5241030B8B4201D30B03C01A5241C30A8B4201D3CB02C01A5241830A8B4201D38B02C01A5241430A8B4201D34B0267
:402BC000C01A5241030A8B4201D30B02C01A5241CDD2C3098B4201D3CB01C01A524183098B4201D38B01C01A524143098B4201D34B01C01A524103098B4201D30B01C01A9C
:402C00005241C3088B4201D3CB00C01A524183088B4201D38B00C01A524143088B4201D34B00C01A5241411A00D20146524110467047FFE701B5002000F0FCF802BDC0461C
:402C40000029F7D003B5FFF775FF0EBC4243891A1847C04603460B437FD4002243088B4274D303098B425FD3030A8B4244D3030B8B4228D3030C8B420DD3FF22090212BAFA
:402C8000030C8B4202D31212090265D0030B8B4219D300E0090AC30B8B4201D3CB03C01A5241830B8B4201D38B03C01A5241430B8B4201D34B03C01A5241030B8B4201D318
:402CC0000B03C01A5241C30A8B4201D3CB02C01A5241830A8B4201D38B02C01A5241430A8B4201D34B02C01A5241030A8B4201D30B02C01A5241CDD2C3098B4201D3CB01E1
:402D0000C01A524183098B4201D38B01C01A524143098B4201D34B01C01A524103098B4201D30B01C01A5241C3088B4201D3CB00C01A524183088B4201D38B00C01A52416C
:402D400043088B4201D34B00C01A5241411A00D201465241104670475DE0CA0F00D04942031000D34042534000229C4603098B422DD3030A8B4212D3FC22890112BA030A12
:402D80008B420CD3890192118B4208D3890192118B4204D389013AD0921100E08909C3098B4201D3CB01C01A524183098B4201D38B01C01A524143098B4201D34B01C01A39
:402DC000524103098B4201D30B01C01A5241C3088B4201D3CB00C01A524183088B4201D38B00C01A5241D9D243088B4201D34B00C01A5241411A00D20146634652415B10E8
:402E0000104601D34042002B00D54942704763465B1000D3404201B5002000F00BF802BD0029F8D003B5FFF715FF0EBC4243891A1847C0467047C0460E4B70B500251E1C0F
:402E40000D4CE41AA410A54204D0AB00F35898470135F8E711F08CF8084B00251E1C084CE41AA410A54204D0AB00F35898470135F8E770BD7C3F01007C3F01007C3F01005F
:402E8000843F010030B50024944208D0035D651C0C5DA34201D0181B02E02C1CF4E7002030BD002310B5934203D0CC5CC4540133F9E710BD031C8218934202D01970013384
:402EC000FAE77047134A1088810703D08107890F401A001D11791030484381B25088820703D08207920F801A001D800040180A494030098980B2CA0701D0503080B2890773
:402F000006D504495422091F09785143081880B270470000C20C0020F00F002010B501F0ABFE10BD10B500F04FFA10BD10B50749044609780220002907D1204601F0ECFE65
:402F4000002802D1204609F0ADFF10BD2C0E002070B504460120002C12D02368002B0FD0616800290CD0074D06222889208118462968FFF796FF6968606809780170002030
:402F800070BD0000F00F0020FFB585B0002768460E9D07734C481C460078002802D0082009B0F0BD10990F9801900095029105A807C800F0FBF80028F2D16946264603ABD0
:402FC00084460873002C19D0002115E08A00B75A082F09D990198078002805D0083FB7521878401C187005E0002915D00027B75290198770491CC9B2A942E7D36046002835
:40300000CED10F9800280AD0109901F0E9F90006000E04D00120C3E701208446EEE701F02BFE2948002101610C300599016021888180022D03D3A1798171A17AC1710021E7
:403040001EE0481C19E082008B00A75AE65ABE46BE4211D26F463E80B4461E190296B678BE7001967646E6521719029EBB78B3706646A652019EBE70401CA842E3D3491CA5
:40308000A942DED3114800906846037B22460799069800F013F9002882D168460A4C007B60700A4801F018FE0028B4D1204607490C3006F021FF0028ADD106F03BFF0028E7
:4030C000A9D1012121706BE7BC0C0020F00F0020F8B5054633480E460078002802D002242046F8BD002E5BD000242F49002D16D02A89D0070DD02868002808D003881B3BF0
:40310000E12B04D24088FB2801D81B2801D2012409E0900707D56868002804D1F7E70020088108604860002CDAD11F482F8907811C481B21801D01804180042101711949F8
:403140000020891C0870F80705D016480622801D2968FFF7A6FE1449B80703D56A681148127882700F480D46801D0860001F486001F0F8FD0B48801D01F0E6FD28890CF088
:40318000ABFE28890DF012F803461033FFF79AFE1F21C018890140180249308088809FE701249DE7BC0C0020F00F0020FFB58446384F1C460020BB883F7805460246064601
:4031C000002F11D100290ED0029999420BD36146002908D0002C06D00A99002906D02E4B0B99994202D2012004B0F0BD002144E0AB001F19BF78002F3BD0E35A002B38D0C0
:403200007B43591889B22B0000F04AF8050410161C253100A7782388BC46FF27233BEB37BB4222D26346032B1FD322E0A388002B1FD0302B19D31CE02389002B19D0282B5D
:4032400013D316E0A289002A13D01346134F233BBB420AD20DE0268A002A0AD033460F4F233BBB4201D2964203D901200EE0002001E000280AD16D1CEDB2099B9D42B7D3A6
:403280001C2463435B1802998B42ACD89642AAD8AAE70000BC0C002079020000BAFF000030B47446641E2578641CAB4200D21D46635D5B00E31830BC18470000FFB583B01B
:4032C000002469460C801F4606468C80002806D00598002803D004983043800701D0012467E0002FFBD03449049809888842F6D3FFF740FBFFF728FB00F010FC002856D17D
:4033000000F06CFD002852D12C49084601F09CF805042D0C4BD12A480499066081800021C18007810C98007AC00704D0684601F0BCFC040007D10C98007A800703D501A8D1
:4033400001F0BCFC0446BF1DFEB2002C21D13146059800F05DF804001BD10CF035FF0406240E16D16A461088928808368518144AF1B29088D288AEB29319984207D3401B49
:40338000801A80B201F050FB050007D000E0FF25012400F05BFA002D04D008E0F8B200F01BF9F6E700F07EFA06490120087000F0C7FB204607B0F0BDC00C0020FD3400005E
:4033C000FC0F0020D00C002010B503480078012801D101F0CBF910BDD00C002070B5084B0446DA889E8800205518B54206D81D68AA182260DA885118D98070BD032070BD8F
:40340000FC0F00200148008970470000FC0F0020F0B587B007460D4600208900009006916846FFF7DBFF844600285DD1304800990160002117E02E4B88001A680629115422
:4034400006D22C4C0419667882185670628805E0C419203CA67A8218567022891B68C018491C4280C9B2A942E5D300242DE0601CC2B2059025E01E4FA3003968960058185C
:4034800040887118039604904E88B04217D938466F46FE80B6464F786E4677710297049F4F800168039F5E18767879184E700168764659184E800068029F18184770521C3B
:4034C000D2B2AA42D7D30598C4B2AC42CFD36046002809D168460699FFF780FF8446002802D1054900980860604607B0F0BD0000D40C0020A83F0100D80C002070470000E5
:4035000010B5002809D005494A68002A05D0011F08788000105801F035FA10BDD40C002010B50446FFF76EFFC0B2801DA0420CD307484068002808D0A100405801F094F961
:40354000002801D00470001D10BD002010BD0000D40C0020F8B516460D460446FFF752FFC0B2801DA04203D20020C0430090F8BDB2B2E9B2684601F09DF90099481C03D0E8
:40358000024AA000526811500098F8BDD40C0020F8B50746FFF736FF801DC6B20A49002005460C680DE06178002907D06188B94202D32078FFF7B4FF002804D1241D6D1CC4
:4035C000EDB2B542EFD3F8BDD40C002010B5002801D0FFF795FF10BD70B506460948002504680BE06178002905D062882078121D0023FFF7AFFF241D6D1CEDB2B542F1D3F8
:4036000070BD0000D40C0020FFB581B00A9C16002BD000F0F1F80546042826D0214F002C0BD02046FFF7B4FF2901C919486000281BD022460499FFF734FC1A4928010E5019
:4036400046187481019805707D20029CC000444300F0C0F8009004280AD000F055FAA0420ED800F051FA201A06E0FF2005B0F0BD204600F0ADFA0020B08135720020F5E755
:4036800000F042FA074600F0B9FA381B87B23846012100F0EFF800980101024808188781E6E7000008100020F8B5060117483418217A042903D0A089002802D018E00020A5
:4036C000F8BD00F021FA054600F098FA00F0A2F804280DD001010D480F18B88941198DB2002100F0C7F80020B881284600F070FA6068064D002801D0FFF768FF042020723A
:403700000020A8516081A081D9E7000008100020FEB500266A46304601232549050169180D7A042D02D0898900291BD000211154401CC0B20428F0D300246846005D002814
:4037400030D01B482101081841894768056802910021016041600422418102728181002E02D015E01354E3E700F054F804280ED001010F480818019086890021304600F09E
:4037800079F8019800218181304600F021FA0126002D07D038460299A847002F02D03846FFF714FF641CE4B2042CC6D3FEBD0000081000200EB5002005216A4600901181F3
:4037C00050810348694600680DF073FB0EBD0000DC0C0020074A0020010189180B7A042B02D08989002903D0401CC0B20428F3D37047000008100020054900200201521826
:40380000127A042A03D0401CC0B20428F6D370470810002030B50A4B04200A4C00210A011219157A042D06D09289002A03D09A4201D808461346491CC9B20429EFD330BD78
:40384000FFFF0000081000207047000030B50020074C05460423020111190B72A5504D60401C4D81C0B28D810428F4D330BD00000810002030B5094C00231A011219157A51
:40388000042D04D09589002906D02D1895815B1CDBB2042BF1D330BD2D1AF7E708100020002070471CB5002469460C70142001902346054A05480DF001FB04480068401C80
:4038C00000D1FF2420461CBD21390000DC0C00203EB5124A0146FF2000230124126800290DD0012914D0042908D104206946009308814B8110460DF0DCFA80B23EBD6846E3
:40390000009304814381694610460DF0CDFAF4E768460093048143816946EBE7DC0C002070B545890468416800890300FFF7B8FC08280509091E22282628002005F0EEF9BD
:403940001EE0022908D0C8B22A4621460BF074FC2046FFF73BFE13E002202A4621460BF06BFC2946204600F00DF809E000200CF08FFF05E02046FFF7CBFE01E0FFF778F8F9
:40398000002070BD014B0022DB681847E00C002070B5448905680089022803D0032809D0FF2070BD2246094C0023A46829460120A04708E0FFF7B2FA241DA2B20023294655
:4039C000022006F04AF9002070BD0000E00C002070470000024800214160018041807047E00C002070B50C46002186B016460391012802D0022859D116E003A9012006F085
:403A00008CF901281BD1039D324621462846FFF748FA0095287801900220694608814E816846FFF7B5FF41E0214D002B686809D0049004A9022006F070F901281DD0022023
:403A400006B070BD002812D0298840182146FFF728FA28880024801980B228806988091D884206D12C801348FFF792FF03E00320E6E788421AD96C6018E004986860E27832
:403A8000A378110219430B4A698000231060E3565360032313815181A1788170E178C1706178417021780170042028800020C7E7E00C0020481000203EB515460C46022823
:403AC00003D004280CD000203EBD0091019002206946088107484A8100680DF0EAF907E00BF0AAFB044B0022DB6829462046984701203EBDDC0C0020E00C0020014AD16057
:403B000090607047E00C0020034801688068081A0A214843000970475410002010B5FEF719FF482204490548FFF7BBF903490120C870002010BD0000C43F01005814002078
:403B400010B5FEF7FBFE10BD70B5134C2368002B08D0207B1149C20705D04008400020738868A08070BD88680B4AA18880B29268814203D90A4D691A091802E0814202D21B
:403B8000411A5118A160A080A0689842EAD30DF0ADF900F013F870BD54100020C0102E40FFFF000010B508461946FFF7A7FF10BD704710B5FFF780FF10BD000003480021F1
:403BC000016041608160C1607047000054100020024610B5FF20002A0CD0FFF7EFFF064C0321207B0843207310010A21FFF728F82060002010BD00005410002000B504483D
:403C00000A21806848430209FFF7D8FF104600BD541000200248007B8007C00F704700005410002010B544490868002802DA434B01221A70022290430860414800693E4948
:403C4000C00B4031096A08425ED0012000F086FA3B483C497C30FEF78BFD37480E216C30FEF786FD364820218430FEF781FD344814219C30FEF77CFD3148FF21C131A43069
:403C8000FEF776FD2E48FF212F31B030FEF770FD2B482D49BC30FEF76BFD29482B49AC30FEF766FD29492648491CB430FEF760FD23482749B830FEF75BFD21482549CC30BB
:403CC000FEF756FD1E4824490830FEF751FD1C482249A830FEF74CFD194821498830FEF747FD17481F498C30FEF742FD14481921C9029030FEF73CFDFEF748FDFEF744FE16
:403D0000C0B2022802D00FE0FF2010BD16491748FEF72EFD15481649001DFEF729FD134800210830FEF724FD54200449C043891C0870002010BD000000F02E40F00C002056
:403D400000002E4055650000320300002F3F00003102000010520000EC160000FA12000031D000003AE300009956000080012E40F80F000070B50646581C80B245086D0001
:403D8000002408E0304600F0C1F81055000A1119A41C4870A4B2AC42F4D3D80705D0D0182038D15CC47FD454C17770BD30B50A4C002100195B1E07E0541864782502545CD7
:403DC0002C430480891C89B29942F5DB994201D1515C018030BD000000102E4010B5FF2000F0BCF90F49FF2048700E481021801D41800121417001700A490020C91C48700E
:403E0000FFF710FF04000AD100F008F907210648FEF7A0FC044807211830FEF79BFC204610BD0000F00C0020CC112E4070B5002405465B1E0AE0284600F068F8010A1619D5
:403E400071702D1D1055A41CADB2A4B29C42F2DB9C4203D1284600F059F8105570BD000070B500210A4D5B1E0AE0541864782602545C344346193480001D891C80B289B2C6
:403E80009942F2DB994202D1515C4019018070BD00102E40F0B50599091FCFB200217E1E0BE0541864782502545C2C43164D45192C80001D891C80B289B2B142F1DBFC07FA
:403EC00012D01C78515C24020F4A0C4381180C809C785D78001D210280B2294384182180001D80B2D9780CE059781A7809021143054A84182180001DD9789B78090280B210
:403F0000194380180180F0BD00102E40014940180088704700102E4010B50B490020487000F07CF8002000F03FF9002000F02CF907210648FEF70EFC044807211830FEF78A
:403F400009FC002010BD0000F30C0020CC112E4010B50B46062812D006DC01280CD0032801D1FFF7D9FF10BD0A28FCD00B28FAD105480078107010BDFFF730FF10BD1146E9
:403F8000184600F02DF910BDF60C0020F8B5204DAC6A0127A0071F4E002816DA307806280ED1286A384328621B480069F903084381B219481030FEF7DBFB042000F0CEF842
:403FC000134802212830FEF7C5FBE00711D0062000F0C4F80F49FF20C91E48707078002802D1686B38436863094801212830FEF7B1FBE0050BD53078042802D1052000F09D
:40400000ADF80348FF2101312830FEF7A3FBF8BD40F02E40F30C002000002E4010B503212348FEF7A5FB0120FEF77AFC20483038406A204C80076178800F890001431C48F8
:404040000C38FEF795FB6078002808D0401E022181401820FEF7E4FEC000083800E0B82081B21548FEF784FB1348032109021438FEF77EFB10481149B830FEF779FB6121C9
:4040800089010F48FEF774FB0D480321001FFEF76FFB0C490C48FEF76BFB0B480B496038FEF766FB084801218838FEF761FB10BD70F02E40F60C0020D8102E40908900007C
:4040C000041E2E40FF0F000058122E40209000000849087806280BD148780749002803D1486B400840004863C86A01221043C86270470000F30C002040F02E4001480078C6
:4041000070470000F30C002000B50300FFF7C8F8080D050D0B070507090D012000BD032000BD042000BD022000BDFF2000BD0000074A9168D26889B2064B92B2994204D182
:4041400005498A4201D1012100E000210170704780002E4033D000003FE3000010B50446FEF7F2FB072C01D9FF2C01D102480470FEF7E4FB10BD0000F30C0020014948707A
:4041800070470000F00C002010B5064A012805D01921C9021046FEF7EBFA10BD1D21C902F8E7000090002E4010B50A4A141D012808D009491046FEF7DBFA08492046FEF7C8
:4041C000D7FA10BD04491046891CFEF7D1FA0349491DF3E788002E4031D000003AE3000070B50C460546FEF7CFFBC0B202280E49287804D0FF2810D04C280CD810E0FF281B
:4042000009D10A4AD0680004800F032801D0087807E09069000A553803E00878207070BD4F382070087070BDF20C002000002E40F0B50122002830D000292ED004244206A3
:4042400000D00524792342065B06D21800D0641C034600221EE00C2516466E43104D00277519AF720E4F002ABB51696007D0661EB24209D10B4E86197606760E05E05E0626
:40428000760E8027BE1B00E080269B198919521C2E81D2B2A242DED300221046F0BD0000E012002079020000074900200C2242435218927A012A05D0401CC0B20628F5D3D9
:4042C0000020704701207047E0120020F8B50F000446164609D0184D18496868A04202D94018A04201D38E4201D90120F8BD39462046FEF7C7FD00281BD0324639462046D3
:40430000FEF7CFFDF0B200210C224A43521913895668F718A74208D90127A41B1B1B9772834206DAC01A1469C0B2491CC9B20629EAD30020F8BD0000E012002079020000DE
:4043400010B500F05DF80748054AC16806480C46FEF7A7FD04492046FFF76AFF10BD000079020000FC0C002064100020002070470020054A002902D0012902D002E050604E
:4043800000E0906000207047FC0C002070B5084C154608460549A26889182A46FEF781FDA0684019A06028B270BD000064100020FC0C00203EB50A226946FFF7E7FF044618
:4043C00006480A2200686946FEF75CFD002802D00020C0433EBD20463EBD0000FC0C0020002802D0044A914201D2FF20704703490A61C8600020704779020000FC0C002020
:40440000024800214160816070470000FC0C002070B5074C15460548626880182A46FFF755FF60684019606028B270BD64100020FC0C002010B503490A220968FFF7E8FF45
:4044400010BD0000FC0C002010B50F4A002313600E4A13600E4B18600E4801600E49012008600E490860000290600E490C4808600D4914300860FF381538506000F0BCF8C2
:4044800000F0CAF9002010BD280D0020100D00203C0D0020400D00202C0D00201C0D002028140020200D0020340D0020014610B50020002910D0094B1A689C685118A142ED
:4044C00009D25868196080188A0704D08A07920F891A091D196010BD002010BD100D0020F8B50024164E671E321F3D463168136806E01422624310328A58521C1BD0641CE0
:404500009C42F6D36A1C14D02C461422544322460C3288500C214843FFF7C8FF3168002808510AD031680020103408517068401C70602846F8BD2546E4E73846F8BD00005E
:40454000200D0020F3B50026F64381B000281BDB1E490968884217D80299002914D01B4F142204463F1D54432546396810354859401C09D0FEF7E8F938682F1F4159C359E1
:40458000994203DBFEF7DAF93046FEBD214608310091465801590C20704308180C220299FEF77FFC0948761C001D0068C159B14200D100260549009A091D8650086841598E
:4045C000491C4151FEF7BAF90020FEBD1C0D0020002803DB07490968884202D90020C043704704491422091D0968504310300858704700001C0D0020F0B500200D4A451EE6
:404600000346171F50600FE014260146714314680E1DA3510C461668083433511668083435511468401C635039688842ECD30020F0BD0000200D0020F3B50026F64381B0B5
:40464000002841DB2349096888423DD8029900293AD0204F142204463F1D54432546396810354859401C2FD0FEF76EF93868415900292BD0211D009146580C2100597143DC
:404680000F46C1190C220298FEF70BFC11480021001D0068761C00590C34C0190160416081600C48001D00680159B14200D100260849009A091D865008684159491E41511A
:4046C000FEF73CF90020FEBD3046FEBDFEF736F9FAE700001C0D0020FEB504460D4600201E49089E0860471E009001900290002C11D0486885420ED2002A0CD0002E0AD0C7
:40470000642E08D808460C3001681C2068430C18207A002801D03846FEBD0120226020721846FFF7DDFE6060401C13D06681A6810A4827610C3067610179A94200D2057141
:404740000021684601810A462846029B00F040F82846FEBD00202072DDE70000280D002038B50124009400F039F838BDFEB50027164EFF433D4600240EE01C203168604328
:404780000818017A002906D04068FFF721FF002801D0254603E0641C3079A042EDDA681C12D01C2130684D434419FEF7CDF869466068FFF741FF0546FEF7C0F8002DD9D12A
:4047C000216868468847D5E7FEBD0000340D002038B50024009400F001F838BD1FB500220C49541E0A60002811DB496888420ED808491C220C31096850430818406801A97A
:40480000FFF7A0FE401C02D0002004B010BD2046FBE70000280D0020F0B50021114A4D1E174611710C3F0B46BD6016E008461C2460431668041D3551146806462350146851
:404840000836A3551468361DA353044616680A34335318301468491C255078688142E5D30020F0BD340D002038B500210091002811DB0F49097888420DDA0D4D04010C35AD
:4048800029680859002807D0201D0818694600F06FF9002801D0002038BDFEF755F828680F34015D491E0155FEF748F8009838BD440D0020F7B582B0002502986E1E0660A3
:4048C0002E48D21C024017462D4A2C4610460C380178106805E02301C358002B0FD0641CE4B28C42F7D3711C28D03401211D40180191039900F02AF900281FD101E026466F
:40490000F1E71F48016820460C300F521C480399026820460E30115419480399026820460F3011540398784300F0A0F8144900280968085102D00024009011E001251AE024
:404940000F48016801980818009900F02CF9002801D0012502E00098C0190090641CE4B203988442ECD3002D05D10298066004480179491C0171284605B0F0BDFCFF00006D
:40498000500D0020F8B50D4600216A468C461180002839DB23490978884235DA214B04010C3319680A59002A2ED020460C300B5A801C0E5C184670438018954224D385423D
:4049C00022D2002006E007465F43BF18AF4206D0401CC0B2B042F6D36046002814D0114E271DC8190C366A46294600F006F900280AD168460088012808D030682946C01907
:404A000000F0D1F8002803D00120F8BD0020F8BDFDF79AFF30680F34015D491C0155FDF78DFFF3E7440D0020F8B50F46002400F031F8002817D10C4900220B460C334A60CB
:404A40000EE021011D680E466A501D680C36AA53B61C1D680F31AA551D68641C6A54E4B2BC42EED31A71F8BD440D002000280BD0C01C074A81085068890053884118994267
:404A800003D89368516018187047002070470000440D0020F8B5064600200F4D009029700C0121466846FEF799FC00280CD129460C3100980860301B001F84B22146684690
:404AC000FEF78CFC002801D0FF20F8BD6C800098A8600020F8BD0000440D0020F8B5002827DB19490978884223DA174C05010C342168485900281CD028460C30085A009096
:404B000028460E300E5C401C0E5420682F1DC01900F064F800280CD12068002445590EE0094829460C300068C01900F03CF8002801D00120F8BD00982D18641CE4B2B44252
:404B4000EED30020F8BD0000440D002030B50D4604000BD0A800FFF789FF6060002805D000202570C0436080002030BD012030BD70B50D46040005D0002D03D00220205E90
:404B8000002801DA012070BDFDF7DEFE0221615E60688900405828606088401E6080FDF7CDFE002070BD70B50D46040007D0002D05D002212078615E401E814201DB012062
:404BC00070BDFDF7C1FE6088401C00B26080616880000D50FDF7B2FE002070BD10B5040009D0227800216068FEF764F90020C0436080002010BD012010BDF0B500231D46E8
:404C0000002802D00224045F0AE00120F0BD46689F00F6598E4201D1012503E05B1CDBB29C42F4DA15700020F0BD00000148007870470000580D00207CB505460024FEF75E
:404C40006DF9A8796946087000A8062229460130FEF727F90021684604F026FB0C2804D0072804D01F2804D004E0022402E0042400E0272420467CBD10B500F031F9FFF744
:404C80003DFAFFF741FA10BD70B504460025FEF745F9002C06D0A079012803D8214602F06DFB00E00125284670BD01460120002902D05020088000207047000001460120DD
:404CC000002905D0034854220078504308800020704700005A0D002010B502460D49FE204870032410460CF007FC002810D10CF0ABFB00280CD105F06DF8002808D100F054
:404D0000DFFA002804D104F053FD002800D10024204610BD580D002070B50025044600280ED0A07901280BD8FEF7F8F8A0790028204602D002F0B0FE03E002F085FE00E08F
:404D40000125284670BD0000014610B50120002904D006220248FEF7A4F8002010BD00005C0D002001460120002903D00878024908700020704700005A0D002038B5044693
:404D80000120002C20D0617801291DD800290BD0FF25E535FEF7C2F80C4828180088C0B22070072803D00EE0FF25CD35F2E70020694608706846FFF7BBF9694608780128C9
:404DC00001D108202070002038BD000000102E40F8B504460120002C26D06178012902D92278092A20D8002905D0FF25E5352078092803D004E0FF25CD35F8E70820207040
:404E0000FEF78CF82078114F114E08280DD00020FFF7CAF970780128207810D00D4969180880FE2070700020F8BD0120FFF7BCF90720B8810549203188800120F2E7B881FB
:404E40000248217820308180EBE70000C0112E40580D002000102E4070B50E46050001D0002400E00C4C002C11D0E28A500609D5D107C90F022002F0A3FEE08A4021884397
:404E8000E08204E0D107C90F012002F099FE3146284602F081FB70BDC0140020F8B50546002004460D4E009013E022466946284600F01EFF0098002801D00CF0FFFAA87866
:404EC000214602F0CBF9A878214602F0B9F9641CE4B2308AA042E8D8F8BD00007815002038B51E4CFFF70AF9042813D0052811D0062812D003282AD007280AD1002069461B
:404F0000087002460120FFF723F8FFF7F7F80128FBD138BD00F048FB38BD02F0EDF900F043FB02F04DFA8007800F0228F4D10C4841880029F0D05B21095D0029ECD1012154
:404F40000170A07D0140022002F03AFE38BD02F0D7F90120FFF702F938BD0000C0140020680D0020F8B50646002402F097FE0546304602F0ADFE03460A480021068A0DE094
:404F800001228A401046174628401F40002803D0002F01D1224394B2491CC9B28E42EFD82046F8BD781500201CB50020694648706846FFF7E3FE01AA69460A20FEF7C8FF87
:404FC0006946042008561CBD10B50C4601F062FA002809D00179002906D0C1788078224602F060FB002010BD022010BD0148007870470000981400204030C07E002800D01D
:405000000120704700B500F001F800BD8C2148430749084A40186030417F491CC9B24177D289914201D300214177C8B270470000A01400207815002013B501F02BFA0400B4
:405040000BD001F0C8FD002807D0214601AA0A310620FEF77DFF00201CBD02201CBD000010B50C4601F016FA00280AD001F0B3FD002806D0224604490A20FEF769FF0020B3
:4050800010BD022010BD000081140020F3B581B0074601460026029802F0F8FD0446002F01D0002500E0154D002D21D0284601F027FA032C04D13946029802F043FE064680
:4050C0003846029902F0BCF8032C06D0002C10D00121384601F01AFB03E03146384603F02DF8284601F0A0FF0221284601F0B6FFFEBD3846029902F0A3F8FEBDC014002005
:4051000010B5044603F064FC002801D00C2010BD2078611C02F0C8FBFF2801D01F2010BD02F00EFCFF280AD02178621C02F016F8044821780068026B601C904710BD072038
:4051400010BD0000800D002010B503F041FC002801D00C2010BD02F089FB03480068C06A8047002010BD0000800D002070B50D46044610210CF0E2F81021601806460CF060
:40518000DDF8334610221946204603F04FFC102130460CF0D3F802202870204604F060FA70BD0000F8B504464078217802028006870FE0781143A67809050002090D0643C2
:4051C000084601F067F900210546F2B2002812D0002C10D0022F0ED0032F0CD0002A0AD00279092A07D0002A05D0134A5A23527E1B5C9A4207D82889002104F066F92046DE
:405200000CF05CF9FF21002914D10C48224600682946436930469847C0B2FF280AD128464030817EF2B2491C8176FF232146284600F0DDF8F8BD000058140020980D002048
:405240000020704710B5044603F0C2FB002801D00C2010BD2078611C02F026FBFF2808D002F05EFA044821780068426B601C904710BD1F2010BD0000800D002010B504F0A9
:4052800097FA00F057F9002010BD10B5044600786178E2780843A17811430843217908436179084305D003F085FB002803D00C2010BD122010BD204602F0EEFB002010BD00
:4052C00010B5FDF761FB02F00BFD044803F0ECFB02F030FA012000F003F810BD68140020F1B586B003A8009005A8019025489F22817A114081726846FDF72AFE00283FD124
:4053000069460989C90705D01F4806990068C2686846904769460989890706D500282FD11A480068816A06988847002828D1184E0025757075737571F5753576757675752B
:40534000B570F570B5713746F5730120BC3738731F20F880FF2130467972A0300175457500F056FA00242046069901F0DFFB002803D1641C2406240EF5D0FD72BD72B5730A
:4053800007B0F0BD58140020980D0020800D0020A014002070B505460E46084602F07EFC0446304602F094FC0121A9400A46224001400A4301D0012070BD002070BD10B57B
:4053C0000446084602F084FC0121A140014201D0012010BD002010BD10B5FEF78FFE032804D101F08DFF0120FEF7B8FE10BDFEB51C4616460F46054601F016FEA878FFF728
:4054000001FE02460190334639460094284600F00DF8002808D1A8780199FFF71DFDFF2C02D138460CF04AF8FEBD0000FFB585B005460E980C46FF2810D02B49C00009688D
:405440000A5840180179C0795278814201D9012601E09006860F6846038108E06078A1788006860FE0780002014368460181284601F0BCFB070007D021462846079A00F0D7
:40548000CBFB384609B0F0BD304600F079FC04AE0346039002AA29460096204600F005FB3C20405D002818D0284601F09FFB012813D0684600890096C0B20190A878231D94
:4054C000FF22079902F01CF868460089039BC2B2A878079902F05CFBD3E7684600890021C0B20091E9E70000940D0020F8B5104F002500242846FFF735FD060012D00EE02C
:405500003046E040C007C00F07D02146284601F08FFE21462846FFF7B9FD641CE4B2388AA042EDD86D1C2D062D0EE2D0F8BD00007815002010B502F0FDF80020FFF7D0FE7A
:405540000CF052F8002010BDF8B5002400F094F80123012800D10124104F00203E4620360425082203E0002801D0002100E031460979002907D001290BD002290BD0114684
:4055800081402143CCB2401C0006000EEBD07C70F8BD1C43F7E72C43F5E70000A014002010B5FFF7D1FF10BD10B5FCF7E6F90446FEF7A4FD012809D0FEF7A0FD022805D0BE
:4055C000FCF790FC2046FCF7DCF9EEE72046FCF7D8F910BD10B50B4681791943817103D08078114602F0A2FA10BD10B582798A43827102D1807802F0ADFA10BD30B50C4C69
:405600000220A28A0B4B9978002901D0022906D11D785B78EB18282B01D9032002E0032900D101205105490DC0020143A18230BDC0112E40630D002000B500F023F8002885
:4056400007D0012805D0032801D0042801D0002000BD012000BD014600B50020C90701D000F00AF800BD014600B50020C90701D000F002F800BD000001480088000A70473F
:4056800020102E400448008B410501D5042070474007800F7047000000102E4038B50446000610D5FFF7EEFF01280CD1684601F02DFE6846007800F0B3FA012001F01CFDB0
:4056C0000220FFF76DFF0348006801692046884738BD0000800D002010B5034A0178117002F046F9002010BD630D002070B50446FFF7C2FF002801D00C2070BDA27B0121C1
:405700001F48002A827801D00A4301E05208520082706279012A14D0C17849084900C170184D2868016820468847207901280CD06188208802F07CFF2080207904280FD0E0
:4057400015E0C2780A43C270EAE72868C168E01D8847E01D02F08CF90B48808C208006E02868C168E01D8847E01D02F081F9074920798870204602F009F9002070BD000056
:40578000A0140020800D002058140020630D002008B50178FFF770FF814201D10C2008BD002914D0072069460870FFF745FF012807D10121684600F08BF8012801D009202F
:4057C00008BDFFF71BFF02F015F9012011E0FFF733FF012806D1684601F098FD6846007800F052FA02F0FCF8FFF746FF0028FBD10220FFF7D5FE002008BD000010B5034A0D
:405800000178517002F072F9002010BD630D002038B568460BF0E8FD002801D01F2038BD01210098C90201804180002505714571857107214173857302F0A8F8009C20225A
:4058400000212046FDF736FB25702A460021601CFDF730FB204602F08BF8204602F046F900980BF02BFE042200210248FDF722FB002038BD630D00200346084800B5834233
:4058800009D8184600F006FE002804D00089984201D1012000BD002000BD0000FF0E0000074A9179491C8906890E917138220A4092014907090E114308430249084070474D
:4058C000A0140020FF0E0000C006C00E70470000F8B507460E4600240D4803E0002C01D0002500E005462979002905D0641C2406240EF3D00020F8BD0021204601F016F9EA
:405900002E712046FFF7CCFF28813C700120F8BDC014002010B503F0BDF80222002100F003F801F0B3FE10BD10B5094B40074907000F090F185A595A40185043C008642142
:40594000FDF77EF9002800D1012080B210BD00000C400100F7B53D20405C88B015460C46002802D02878042802D200200BB0F0BD6946087200262046FFF73EFB012800D0CD
:405980000126204603A938300191009023460327A17E34333246206A03F0A0F802A8089900900B46019120463A4603A9243003F01DF802466846007A2870204601F0A2F8D9
:4059C0001046D3E7FFB587B00C4605461078694608723D20005D1746002826D000262046FFF70AFB012800D00126204603A93830019100902346A17E34333246206A03F002
:405A00006DF802A80090291D019120462B1D03A924300A9A02F0EAFF02006846007A388002D1204601F06EF810460BB0F0BDF0B505463C20405C89B016460C4600280CD0BF
:405A4000307869460873002806D000272046FFF7D3FA012803D003E01F2009B0F0BD012703200890204604A93830019100902346E17E34333A46E06903F030F86846007BC6
:405A800003A928180290009120462B46019504A92430089A02F0DEFF02466846007B3070204601F039F81046D7E7FFB505463C20405C89B016460C46002810D0084601F026
:405AC00095F801280BD0308869468883002809D000272046FFF790FA012805D005E000200DB0F0BD0220FBE70127204603A93830019100902346E17E34333A46E06902F076
:405B0000EDFF291D2B1D07A8129A6D4607C5204603A924300C9A02F09DFF02466846808B3080204600F0F8FF1046D9E770B50D460446FFF761FA01280AD0E87AA97A0002C6
:405B40000143A07801F09EFC012808D0002070BD00222421204602F0BDFC242070BD28214C200155204600F0A3FB282070BD0000002801D0002000E003484030C07F012877
:405B800000D0002070470000C01400200146002049070ED50021084B03E0002901D0002200E01A461279022A04D0491C0906090EF3D0704701207047C0140020014600203A
:405BC00049070ED50021084B03E0002901D0002200E01A461279022A04D0491C0906090EF3D0704701207047C014002010B5044680346068002803D00BF074FC0020606092
:405C000010BD4030417070474030817070474030017070470171704792001018C166704770B53C2501F080F9040004D020460021433001F0DBFBFF222946204600F0D4FB10
:405C4000002C02D0A07801F0F1F870BD10B5002801D0002000E00348002802D0008903F07BFC10BDC014002010B5002801D0002000E00448002804D00179072901D100F0DE
:405C800047F810BDC014002010B501F04DF9002802D0807801F0CAF810BD00207047000070B50546008A00281ED01049F122897A1140C90618D5294640314A8A098A521C5E
:405CC0004A4392B2D10800D10121540801E0621A94B2A042FBD9FEF7A9FF012804D1298AA878224601F094FC70BD00005814002010B50023054C0B60248A944204D99200AB
:405D00001018C26E0A60C36610BD00007815002038B5044600200090A079002814D14020015D052901D00E290ED168460BF06CFB002809D12046009902F0AAFB03481021FA
:405D4000C28A2046FFF746FC38BD00005814002010B50B4604460146184602F027F8002802D020460BF0B4FB10BD13B5044601AA11460620FEF7ECF86846818861811CBD46
:405D8000002800D10220704770470000F8B504462346401D543300909A1EA078911E01F0D1FA25464035A88A298A8000FCF748FF401E81B2688A884203D96982A07801F0AF
:405DC00039FF20460021433001F010FB27480088E88102F05FFEE989891C8AB26179FFF7A3FD01F053FC02F055FE2A8A6179FFF79BFD074601F03EFC688A002806D01C4995
:405E0000088A032212021043088202E0002001F005FF1748803801886E8A002E0CD0304648431449FCF7FCFF0004000C01D0401C80B21149488002E00F4800214180288A77
:405E4000704381B2A07801F05FFEFF2228374932B9B21346204602F0EFFBE98AA07801F0D3FDA07801F00CFAF8BD000080102E40E0112E4071020000680D00207FB50446E2
:405E80008034616805460E46183108226846FDF708F831462031082202A8FDF702F8102168460BF04BFA6068102108300BF046FA60682B46083024331022694602F0B6FD4E
:405EC0007FBD10B504460821FFF78FFB10212046FFF78BFB207905281FD006281DD008281AD12189002003F0AFFA072020712046FFF782F8014620464030012913D00E2163
:405F0000017000210176204600F0A2FF2046FFF76DFE2046FFF7C4FE10BD20890122002103F076FAE1E70521EAE70000FFB581B01F4604460821FFF758FB10212046FFF70D
:405F400054FB2079082803D0092804D0042203E00422012501E009220025204600F032FE264600204036307022712046FFF73EFE0398002D02D0012808D00BE001280AD1CE
:405F800020890022029903F043FA04E02189029803F05AFA012700203076012F04D0204600F056FF05B0F0BD02983073204602F0BDFA054605480121C28A2046FFF70AFB2A
:405FC000002DEFD109202071ECE700005814002070B50C460546FFF70FF8012809D108212846FFF702FB0023012221462846FFF79DFF70BD10B5044600F0E4FD2046FFF739
:40600000F5FD00214034217010BD70B505461A24FEF7F2FF012809D108212846FFF7E5FA0023012221462846FFF780FF70BD0000F8B50446002000900E4668460BF0E4F93A
:40604000002801D00D20F8BD8420005908212030009D00F01AFA20460421383000F015FA002E02D1204600F0E9FD2946204602F09EF90E480821C28A2046FFF7ABFA20466F
:4060800000F057FF25464035002808D0204600F023F8002801D0092028700020F8BD08202870204600F0C0FFF7E7000058140020014610B540310A460978082906D00929F4
:4060C00007D00A2901D100F091F810BD0B20107010BD00F001F810BD70B50446007925464035052805D0062803D008280FD00C2070BD03220621204602F0ECF90D48082116
:40610000C28A2046FFF766FA1120287010E006202873204602F00AFA0646AA8A0A20424301212046FFF756FA002E01D109202071002070BD5814002038B50446002000900A
:4061400068460BF061F9002801D00D2038BD2046009D00F0B1F908202071204600F06EFD2946204602F056F900213D2001550F2040210855204600F057FF002038BD00B59D
:40618000024600F01FFD10214032117000BD10B50446FEF731FF012809D04020005D112805D100231A4606212046FFF7BFFE10BD10B5FFF786FE10BD38B504460021684606
:4061C00000910BF021F900280CD12046009902F0A2F905480821C28A2046FFF7FBF90D204034207038BD00005814002038B504460021684600910BF007F9002801D00D20EC
:4062000038BD2046009902F07BF905480821C28A2046FFF7DFF90C2040342070002038BD5814002000787047F8B50025002801D0002400E01A4C002C28D0204600F0CBFC98
:40624000002823D0207903281CD005281CD026464036B18AA07801F061FCB078012815D10021204601F0BFFD274680373868002802D00BF037F93D600020B07020790728BE
:4062800005D007E0042000E006202071F8BD2046FFF706FD0221204600F0E0FEF8BD0000C014002010B54C22115400F04CF810BD10B50446FF21FFF798F909202071A07832
:4062C00001F052FC10BD000038B5FF216A461180002801D0002400E0084C002C0DD011460620FDF735FE684601882046FFF73DFD03480068C1692046884738BDC01400207E
:40630000980D002010B504468079002809D022214C200155FF212046FFF767F9204600F012F810BD10B5037902464032002B03D01173092B02D003E0002100E02221117353
:4063400000F001F810BDFEB504460089002700902781207926464036002817D0012815D002280AD112E002AA01A9204601F00CFD002807D101980BF0ABF8204601F02CFD86
:406380000028F0D02046FEF789FDB776254680352868002802D00BF0A5F82F606868002802D00BF09FF86F60317B002919D0009800F064F8A078002100F076FF2046FFF74F
:4063C000A9FAA07801F048F8A07800F02FFDFF212046FFF70AF90B20FFF7E2F800F068FCFEBD1F213173E2E7F8B517460E46054602F04CFB04003CD020460C3000F0E6FFDE
:406400002046062200211830FCF754FD2046062200211230FCF74EFD1648224600683946436A28469847074626702846FEF7E4FD012148406070002D10D02889608028469E
:406440004030C1782171002E0FD169796171018AE180418A2181808A608106E00648008BC005C00F2071002060803946204602F06EFFF8BD800D002000102E400A4610B5BE
:406480000146002003F080F810BD10B50AF032FD10BD000000B50146FFF716FA002801D0002000E00348002802D002898A4200D0002000BDC014002038B504468034606897
:4064C000002806D168460AF0AFFF002801D100986060606838BD000010B5014600F086FB0128887802D0FEF791FD10BD8C214843024940186030007F10BD0000A0140020E5
:4065000070B5054604464035A87F012811D1A1788C20084A484380186030067F3046FEF739FF002805D10220A877A078314601F03DF870BDA014002010B50C4CA07A0028B4
:4065400013D0FEF7D3FF0A48027F417F408B00F0B7FB012809D10020A07200F0EDFE05498989090B01D000F03BFA10BD5C150020A0140020A0102E4070477047490510B526
:40658000490F0B00FCF78CFE060704080C0C0F073E21FFF787FE10BD0821FFF7C3FE10BDFFF7D1FE10BDFFF7ADFE10BDF8B507460025002D01D0002600E0204E00F08AFE57
:4065C0003046403044890021418100F08DFE304600F001FB01282BD1A00702D52846FFF723FEE00602D52846FFF76EFEA00601D5FEF77CFF600601D500F014FB200602D54F
:40660000284600F01DF8600702D5284600F02CFA380402D52846FFF727FB780402D52846FFF714FBE00703D021463046FFF7A6FF6D1C2D062D0EBCD0F8BD0000C014002068
:40664000F8B5002801D0002400E0284C002C4BD025464035A878012846D1FF278820493700593E46002805D02149897A890601D5878AC68A2046FEF7BFFC012834D002F0E5
:4066800009FA2A8A6179FFF74FF9009000F0F2FF00983346283081B23A46204601F0CCFFE98AA07801F0B0F912480188688A124E002810D048431149FCF7B2FB0004000C65
:4066C00001D0401C80B27080A07DC107C90F002001F076FA01E000207080288A698A484381B2A07801F010FAF8BD0000C01400205814002060112E40680D0020710200008A
:406700000149096809680847980D002070B50D460026194A0146002801D0002401E014462034002C26D0204600F060FA01280AD18C20484380186030007FFEF72BFE00282B
:4067400001D101F073FE0D48006881692046884700280CD020464030817EA94202D3491B817600E086762089294602F0AEFE204600F05AFC70BD0000A0140020980D002011
:4067800070B503460088FFF785FE040013D000F022FA00280FD02079092819D02546997840352973204601F0C1FE0646A878012803D0AA8A02E0022070BDEA880A2042432C
:4067C00001212046FEF706FF002E01D109202071002070BD0EB5002217216B460292198100905A810120029B00990AF01BFF0EBDF8B518480024807A002822D1164E0025A4
:40680000B089000B22E0204600F000FE1249A039401807882A462146384600F051FA012810D00E480122478305770A4944778A72002D01D0002000E02030002801D000F00A
:40684000F3FBF8BDB089000B641CE4B20028DAD1F8BD00005C150020A0102E40A014002010B50088FFF716FE002809D0014640310C460978082905D00B2903D00C2010BD27
:40688000022010BDFFF728FC002801D009202070002010BD70B503460088FFF7FBFD040008D0254640352878082805D00B2803D00C2070BD022070BD8420005910220830D6
:4068C000991CFCF7EEFA2046FFF7D8FA2878082804D02046FFF78AFC002801D00A202870204600F0A1FB002070BD000010B50C46002121700088FFF7CDFD03000BD000F07B
:406900006AF9002807D00948F121807A0840C00603D4112010BD022010BD022020701A8A1889002102F04CFE002010BD58140020F8B50F46002100910088FFF7ABFD04001B
:4069400012D000F048F900280ED0E079410641D4617E02264A07002A08DB8907402500291ADA2843E07135E00220F8BD02F08EF80021017021894180A1898180217E41703A
:40698000E189C1803E7005460178134802F0F2FA284602F0B9FD1DE0204600F02DF9012806D068460AF030FD002803D00720F8BD2A20F8BDE07900992843E071204601F043
:4069C000DFFD607E0421304360760448C28A2046FEF700FE0020F8BD1D040000581400203EB500220F236C460292238100910190628169460EC900200AF014FE3EBD000019
:406A0000F8B50F46054600F08FFA040025D003202071254600264035EE76E6702046FFF7B5F900F0DDFF0920FEF7BAFDA07800F001FD0121204600F011FB2E706E70AE7054
:406A40003A4600212046FFF7CFFC0649887B401C8873A078FFF754FEF8BD284601F084F8F8BD0000A014002010B5002801D0002000E0094800280DD0014640310A4649784F
:406A8000022901D100215170807DC107C90F002001F096F810BD0000C014002070B503460D460088FFF7F6FC04000BD000F093F8002807D01248F121807A0840C00603D425
:406AC000112070BD022070BD20464030418A008A491C41430804C10C5888884201D2122070BD20822079072802D12046FFF7D8F8022028702089002102F08AFD002070BD6D
:406B000058140020016A491C016204D1817E491C4906490E81767047C169491CC16104D1C17E491C4906490EC1767047F0B5074687B003A8009005A800260D460190002F01
:406B400001D0002400E01B4C002C05D06846FCF7FFF9002803D00BE0022007B0F0BD68460089C00704D18C2200212046FCF7A2F9114829460068826820469047050016D1FA
:406B8000A77066762746267140373E70204600F019F8204601F01CF9084820820848BE77807AF121084000D001202075E682E8B2D3E70000C0140020980D0020B80B00005D
:406BC00058140020002101628176C161C17620300177417770470079002805D0012803D0022801D001207047002070474030807F002800D00120704740300078002807D0BC
:406C0000012805D0052803D00E2801D0012070470020704710B5807801F05AF8002800D0012010BD10B500F087FB03498989090B01D0FFF7D5FE10BDA0102E4070B505461C
:406C400004464035A87F002825D1FF206075A0788C21154A484380186030417F8C23491CC9B24177A0785843104B8018DB896030994201D300214177A0788C214843801834
:406C80006030467F0677A1783046FEF783FB002802D00120A87770BD0220A877A078314600F084FC70BD0000A0140020781500200020401C0006000EFBD000207047000079
:406CC000F0B515468207920F85B0000A02926A469080002D01D0002400E0524C002C28D0084600F093FB07466846808800280BD00298012843D0022841D003280BD03D20CD
:406D0000005D012870D087E04748381801882046FFF72BF880E00020029002A80AF054FB002807D03D20005D012878D12046FFF7E9FE74E06846029E838832460021384608
:406D4000FDF718F83848381801882046FFF70DF8284600F0A1FA01AA21463046FEF7FAFD002806D030460AF09FFB3D204C21085528E0F5773146204601F090F94FE000209F
:406D800000902089039068460AF00EFB002802D0002005B0F0BD6846009E8388321D00213846FCF7E7FF2048381801882046FEF7DCFF284600F070FA25464035287E0028CF
:406DC0000CD103E02046FFF773FA28E001AA21463046029BFEF7F6FD002806D030460AF059FB3D202873EDE713E00298FEF7CCFF01460398307003980901000A08437070BE
:406E000068468088B070000AF0703046FFF7E2FC05E02046FFF776FE284600F03DFA0120B7E70000C014002000102E4010B5074A917B002901D0491E91730021FFF776FE3B
:406E4000002801D0002010BD012010BDA0140020F8B5074606464037B87F00282DD0B0788C2100904843234945186035287F0099FEF7A5FA01281ED0287F401CC4B21E4839
:406E8000C089A04200D800240020B877FF276F772F77A87702460146009800F0F3FC717DFF2903D0304600F054FF777501F0BEFA0025114F19E00320B877F8BD0020009019
:406EC000224669463046FEF713FF0099002904D0FF231A463046FEF78AFA641CF889E4B2A04200D800246D1CEDB2F889A842E5D8F8BD0000A01400207815002010B50246EF
:406F00000021084B03E0002901D0002000E018460479944204D0491C0906090EF3D0002010BD0000C014002000B50120FFF7E6FF00BD10B5044601F0A9FD21890180803459
:406F40006168416061682831816002F097FA10BDF7B50646087982B00C46092807D0A078F0770846FFF742FE012806D010E030460AF0AEFA022005B0F0BDA1788C20294A89
:406F8000484380186030007FFEF704FA012810D0A078FEF7EDFD01280BD037780121304601F0F0F925462035062F38D00B2F0FD107E06846027C21463046FEF7C9FE0D2097
:406FC000D9E72046FEF718F8012801D1002028772046FFF781FA054604AA21463046FEF726FD01205F2108556946097C002001910090A07833463A46294600F081FA6946D9
:407000000A7CA0780323294600F0C2FDA0782946FDF722FF30460AF05BFA0020ABE70120D5E70000A014002010B502464032937F0021002B03D1927E002A00D00121064A7D
:40704000927A002A00D000210279092A00D10121807800F0D5FD10BD5C15002070B50C460546FDF7C9FF00280BD1012C06D92879092806D02846FFF7CDFD0446002C02D084
:4070800004E0012402E0A87DC007FAD1A87DC107C90F204600F094FD70BD0000012807D0082804D104480282034808300180704701488038FAE70000A0102E4001490881F2
:4070C0007047000000102E4010B50446FF20F130012C01D1FF20D530002200F0C3FD044A108A044980B2A0430880108210BD000000102E406C0D0020034B198A034A89B256
:40710000814311801982704700102E406C0D002010B50446012802D0082C07D102E0FF20D53001E0FF20F13000F094FD0348018A034A89B221431180018210BD00102E40B2
:407140006C0D0020034B198A034A89B2014311801982704700102E406C0D0020F8B505460120A84086B214460F46012231467C2000F078FD3A463146782000F073FD607875
:40718000267800020643E078A2780002024360792379000203430C2045430D2080010549281844182680001D44182280001D40180380F8BD00102E40CB065B0E0343480967
:4071C00001021943D00108430121C902084301490881704780142E404278037812021343084A1382C37880781B021843908248780B78000203431383C87889780002014365
:407200009183704700142E40024A1080000C90801181704700142E40044A002180180288491C89B21029FAD37047000000102E40024A10820148803081817047A0102E4024
